:020000040000FA
:06000000AFEF00F012005A
:02002A000000D4
:04002C002A0EF66E34
:10003000000EF76E000EF86E00010900F550856F96
:100040000900F550866F03E1856701D03DD00900B6
:10005000F550806F0900F550816F0900F550826FEF
:1000600009000900F550E96E0900F550EA6E090033
:1000700009000900F550836F0900F550846F0900ED
:100080000900F6CF87F0F7CF88F0F8CF89F080C06D
:10009000F6FF81C0F7FF82C0F8FF0001835302E141
:1000A000845307E00900F550EE6E8307F8E28407F9
:1000B000F9D787C0F6FF88C0F7FF89C0F8FF0001B5
:0A00C0008507000E865BBFD7120013
:0600CA00D9CFE6FFE1CFF3
:1000D000D9FF040EE126010EDE6EDD6ADECF00F0F0
:1000E000DDCF01F0FD0EDBCF02F0FE0EDBCF03F023
:1000F0000250005C035001581DE2010EF36E020E27
:10010000F3CFDBFF030EDB6A020EDBCF00F0030E42
:10011000DBCF01F07B0E005C000E015806E2020E00
:10012000DB2A030E01E3DB2AEFD7DF2A010E01E30E
:10013000DB2AD4D7040EE15C02E2E16AE552E16E0B
:10014000E552E7CFD9FF1200010E956E0F0EC16E7A
:0E01500083A002D0838201D08392FAD71200DE
:02015E0015EE9C
:1001600000F025EE00F0F86A059C16EC00F0BDECFE
:0A01700000F0A4EC00F0FBD7120031
:02017A00120071
:020000040030CA
:0100010002FC
:010003001EDE
:010005008377
:010006008178
:00000001FF
